{
  "address": "0xd9Ea15d93f30bc028B8d60B939395f35cF01af36",
  "abi": [
    {
      "inputs": [
        {
          "internalType": "address",
          "name": "vrfCoordinatorV2",
          "type": "address"
        },
        {
          "internalType": "uint256",
          "name": "_entranceFee",
          "type": "uint256"
        },
        {
          "internalType": "bytes32",
          "name": "_keyHash",
          "type": "bytes32"
        },
        {
          "internalType": "uint64",
          "name": "_subscriptionId",
          "type": "uint64"
        },
        {
          "internalType": "uint32",
          "name": "_callbackGasLimit",
          "type": "uint32"
        },
        {
          "internalType": "uint256",
          "name": "_interval",
          "type": "uint256"
        }
      ],
      "stateMutability": "nonpayable",
      "type": "constructor"
    },
    {
      "inputs": [
        {
          "internalType": "address",
          "name": "have",
          "type": "address"
        },
        {
          "internalType": "address",
          "name": "want",
          "type": "address"
        }
      ],
      "name": "OnlyCoordinatorCanFulfill",
      "type": "error"
    },
    {
      "inputs": [],
      "name": "OnlySimulatedBackend",
      "type": "error"
    },
    {
      "inputs": [],
      "name": "Raffle__NotEnoughETHEntered",
      "type": "error"
    },
    {
      "inputs": [],
      "name": "Raffle__NotOpen",
      "type": "error"
    },
    {
      "inputs": [
        {
          "internalType": "uint256",
          "name": "currentBalance",
          "type": "uint256"
        },
        {
          "internalType": "uint256",
          "name": "numberOfPlayers",
          "type": "uint256"
        },
        {
          "internalType": "uint256",
          "name": "raffleState",
          "type": "uint256"
        }
      ],
      "name": "Raffle__UpkeepNotNeeded",
      "type": "error"
    },
    {
      "inputs": [],
      "name": "Raffle__WinnerTransferFailed",
      "type": "error"
    },
    {
      "anonymous": false,
      "inputs": [
        {
          "indexed": true,
          "internalType": "address",
          "name": "player",
          "type": "address"
        }
      ],
      "name": "Raffle__Enter",
      "type": "event"
    },
    {
      "anonymous": false,
      "inputs": [
        {
          "indexed": true,
          "internalType": "uint256",
          "name": "requestId",
          "type": "uint256"
        }
      ],
      "name": "RequestedRaffleWinner",
      "type": "event"
    },
    {
      "anonymous": false,
      "inputs": [
        {
          "indexed": true,
          "internalType": "address",
          "name": "winner",
          "type": "address"
        }
      ],
      "name": "WinnerPicked",
      "type": "event"
    },
    {
      "inputs": [
        {
          "internalType": "bytes",
          "name": "",
          "type": "bytes"
        }
      ],
      "name": "checkUpkeep",
      "outputs": [
        {
          "internalType": "bool",
          "name": "upkeepNeeded",
          "type": "bool"
        },
        {
          "internalType": "bytes",
          "name": "",
          "type": "bytes"
        }
      ],
      "stateMutability": "view",
      "type": "function"
    },
    {
      "inputs": [],
      "name": "enterRaffle",
      "outputs": [
        {
          "internalType": "bool",
          "name": "",
          "type": "bool"
        }
      ],
      "stateMutability": "payable",
      "type": "function"
    },
    {
      "inputs": [],
      "name": "getBalance",
      "outputs": [
        {
          "internalType": "uint256",
          "name": "",
          "type": "uint256"
        }
      ],
      "stateMutability": "view",
      "type": "function"
    },
    {
      "inputs": [],
      "name": "getEntranceFee",
      "outputs": [
        {
          "internalType": "uint256",
          "name": "",
          "type": "uint256"
        }
      ],
      "stateMutability": "view",
      "type": "function"
    },
    {
      "inputs": [],
      "name": "getInterval",
      "outputs": [
        {
          "internalType": "uint256",
          "name": "",
          "type": "uint256"
        }
      ],
      "stateMutability": "view",
      "type": "function"
    },
    {
      "inputs": [],
      "name": "getLastWinner",
      "outputs": [
        {
          "internalType": "address",
          "name": "",
          "type": "address"
        }
      ],
      "stateMutability": "view",
      "type": "function"
    },
    {
      "inputs": [],
      "name": "getLatestTimeStamp",
      "outputs": [
        {
          "internalType": "uint256",
          "name": "",
          "type": "uint256"
        }
      ],
      "stateMutability": "view",
      "type": "function"
    },
    {
      "inputs": [],
      "name": "getManager",
      "outputs": [
        {
          "internalType": "address",
          "name": "",
          "type": "address"
        }
      ],
      "stateMutability": "view",
      "type": "function"
    },
    {
      "inputs": [],
      "name": "getNumWords",
      "outputs": [
        {
          "internalType": "uint256",
          "name": "",
          "type": "uint256"
        }
      ],
      "stateMutability": "pure",
      "type": "function"
    },
    {
      "inputs": [],
      "name": "getNumberOfPlayers",
      "outputs": [
        {
          "internalType": "uint256",
          "name": "",
          "type": "uint256"
        }
      ],
      "stateMutability": "view",
      "type": "function"
    },
    {
      "inputs": [
        {
          "internalType": "uint256",
          "name": "index",
          "type": "uint256"
        }
      ],
      "name": "getPlayer",
      "outputs": [
        {
          "internalType": "address payable",
          "name": "",
          "type": "address"
        }
      ],
      "stateMutability": "view",
      "type": "function"
    },
    {
      "inputs": [],
      "name": "getRaffleState",
      "outputs": [
        {
          "internalType": "enum Raffle.RaffleState",
          "name": "",
          "type": "uint8"
        }
      ],
      "stateMutability": "view",
      "type": "function"
    },
    {
      "inputs": [],
      "name": "getRecentWinner",
      "outputs": [
        {
          "internalType": "address",
          "name": "",
          "type": "address"
        }
      ],
      "stateMutability": "view",
      "type": "function"
    },
    {
      "inputs": [],
      "name": "getRequestConfirmations",
      "outputs": [
        {
          "internalType": "uint16",
          "name": "",
          "type": "uint16"
        }
      ],
      "stateMutability": "pure",
      "type": "function"
    },
    {
      "inputs": [
        {
          "internalType": "bytes",
          "name": "",
          "type": "bytes"
        }
      ],
      "name": "performUpkeep",
      "outputs": [],
      "stateMutability": "nonpayable",
      "type": "function"
    },
    {
      "inputs": [
        {
          "internalType": "uint256",
          "name": "requestId",
          "type": "uint256"
        },
        {
          "internalType": "uint256[]",
          "name": "randomWords",
          "type": "uint256[]"
        }
      ],
      "name": "rawFulfillRandomWords",
      "outputs": [],
      "stateMutability": "nonpayable",
      "type": "function"
    }
  ],
  "transactionHash": "0x20fc812ea0932ea5db109916c443b291bdc1cbd1dc1ff0aa56f23697d8219616",
  "args": [
    "0x8103B0A8A00be2DDC778e6e7eaa21791Cd364625",
    "10000000000000000",
    "0x474e34a077df58807dbe9c96d3c009b23b3c6d0cce433e59bbf5b34f823bc56c",
    "7843",
    "500000",
    "30"
  ],
  "numDeployments": 1,
  "solcInputHash": "62a77cc04764d2ed85d4614eba6bb4c9",
  "bytecode": "0x6101806040523480156200001257600080fd5b5060405162001af638038062001af68339818101604052810190620000389190620002d8565b858073ffffffffffffffffffffffffffffffffffffffff1660808173ffffffffffffffffffffffffffffffffffffffff1660601b81525050503373ffffffffffffffffffffffffffffffffffffffff166101408173ffffffffffffffffffffffffffffffffffffffff1660601b815250508460a081815250508573ffffffffffffffffffffffffffffffffffffffff1660c08173ffffffffffffffffffffffffffffffffffffffff1660601b815250508360e081815250508267ffffffffffffffff166101008167ffffffffffffffff1660c01b815250508163ffffffff166101208163ffffffff1660e01b815250506000600160146101000a81548160ff0219169083600281111562000151576200015062000374565b5b021790555042600281905550806101608181525050505050505050620003a3565b600080fd5b600073ffffffffffffffffffffffffffffffffffffffff82169050919050565b6000620001a48262000177565b9050919050565b620001b68162000197565b8114620001c257600080fd5b50565b600081519050620001d681620001ab565b92915050565b6000819050919050565b620001f181620001dc565b8114620001fd57600080fd5b50565b6000815190506200021181620001e6565b92915050565b6000819050919050565b6200022c8162000217565b81146200023857600080fd5b50565b6000815190506200024c8162000221565b92915050565b600067ffffffffffffffff82169050919050565b620002718162000252565b81146200027d57600080fd5b50565b600081519050620002918162000266565b92915050565b600063ffffffff82169050919050565b620002b28162000297565b8114620002be57600080fd5b50565b600081519050620002d281620002a7565b92915050565b60008060008060008060c08789031215620002f857620002f762000172565b5b60006200030889828a01620001c5565b96505060206200031b89828a0162000200565b95505060406200032e89828a016200023b565b94505060606200034189828a0162000280565b93505060806200035489828a01620002c1565b92505060a06200036789828a0162000200565b9150509295509295509295565b7f4e487b7100000000000000000000000000000000000000000000000000000000600052602160045260246000fd5b60805160601c60a05160c05160601c60e0516101005160c01c6101205160e01c6101405160601c610160516116c96200042d600039600081816108d601526109460152600061096e015260006107790152600061075601526000610735015260006106f90152600081816103c00152610533015260008181610405015261045901526116c96000f3fe6080604052600436106100f35760003560e01c806353a2c19a1161008a578063d500958411610059578063d5009584146102fe578063e55ae4e814610329578063f88649a114610366578063fd6673f514610391576100f3565b806353a2c19a1461023f5780635f1b0fd81461026a5780636e04ff0d1461029557806391ad27b4146102d3576100f3565b80632cfcc539116100c65780632cfcc539146101a2578063320229eb146101c05780634585e33b146101eb578063473f1ddc14610214576100f3565b806309bc33a7146100f8578063115cbaf51461012357806312065fe01461014e5780631fe543e314610179575b600080fd5b34801561010457600080fd5b5061010d6103bc565b60405161011a9190610d90565b60405180910390f35b34801561012f57600080fd5b506101386103e4565b6040516101459190610e22565b60405180910390f35b34801561015a57600080fd5b506101636103fb565b6040516101709190610d90565b60405180910390f35b34801561018557600080fd5b506101a0600480360381019061019b9190610fd6565b610403565b005b6101aa6104c3565b6040516101b7919061104d565b60405180910390f35b3480156101cc57600080fd5b506101d5610638565b6040516101e29190610d90565b60405180910390f35b3480156101f757600080fd5b50610212600480360381019061020d91906110c3565b610642565b005b34801561022057600080fd5b50610229610841565b6040516102369190611151565b60405180910390f35b34801561024b57600080fd5b5061025461086b565b6040516102619190610d90565b60405180910390f35b34801561027657600080fd5b5061027f610877565b60405161028c9190611189565b60405180910390f35b3480156102a157600080fd5b506102bc60048036038101906102b79190611259565b610880565b6040516102ca92919061132a565b60405180910390f35b3480156102df57600080fd5b506102e8610942565b6040516102f59190610d90565b60405180910390f35b34801561030a57600080fd5b5061031361096a565b6040516103209190611151565b60405180910390f35b34801561033557600080fd5b50610350600480360381019061034b919061135a565b610992565b60405161035d91906113a8565b60405180910390f35b34801561037257600080fd5b5061037b6109d9565b6040516103889190611151565b60405180910390f35b34801561039d57600080fd5b506103a6610a30565b6040516103b39190610d90565b60405180910390f35b60007f0000000000000000000000000000000000000000000000000000000000000000905090565b6000600160149054906101000a900460ff16905090565b600047905090565b7f000000000000000000000000000000000000000000000000000000000000000073ffffffffffffffffffffffffffffffffffffffff163373ffffffffffffffffffffffffffffffffffffffff16146104b557337f00000000000000000000000000000000000000000000000000000000000000006040517f1cf993f40000000000000000000000000000000000000000000000000000000081526004016104ac9291906113c3565b60405180910390fd5b6104bf8282610a3c565b5050565b60008060028111156104d8576104d7610dab565b5b600160149054906101000a900460ff1660028111156104fa576104f9610dab565b5b14610531576040517f1425571c00000000000000000000000000000000000000000000000000000000815260040160405180910390fd5b7f000000000000000000000000000000000000000000000000000000000000000034101561058b576040517fbd4e069500000000000000000000000000000000000000000000000000000000815260040160405180910390fd5b6000339080600181540180825580915050600190039060005260206000200160009091909190916101000a81548173ffffffffffffffffffffffffffffffffffffffff021916908373ffffffffffffffffffffffffffffffffffffffff1602179055503373ffffffffffffffffffffffffffffffffffffffff167f19603181a9303784ca18ec6572f20e443b8636231bfdced3874a429746a7dd1660405160405180910390a26001905090565b6000600254905090565b600061065c60405180602001604052806000815250610880565b509050806106cb5747600080549050600160149054906101000a900460ff16600281111561068d5761068c610dab565b5b6040517f584327aa0000000000000000000000000000000000000000000000000000000081526004016106c2939291906113ec565b60405180910390fd5b60018060146101000a81548160ff021916908360028111156106f0576106ef610dab565b5b021790555060007f000000000000000000000000000000000000000000000000000000000000000073ffffffffffffffffffffffffffffffffffffffff16635d3b1d307f00000000000000000000000000000000000000000000000000000000000000007f000000000000000000000000000000000000000000000000000000000000000060037f000000000000000000000000000000000000000000000000000000000000000060016040518663ffffffff1660e01b81526004016107ba9594939291906114c6565b602060405180830381600087803b1580156107d457600080fd5b505af11580156107e8573d6000803e3d6000fd5b505050506040513d601f19601f8201168201806040525081019061080c919061152e565b9050807fcd6e45c8998311cab7e9d4385596cac867e20a0587194b954fa3a731c93ce78b60405160405180910390a250505050565b6000600160009054906101000a900473ffffffffffffffffffffffffffffffffffffffff16905090565b6000600160ff16905090565b60006003905090565b600060606000600160149054906101000a900460ff1660028111156108a8576108a7610dab565b5b600060028111156108bc576108bb610dab565b5b1490506000806000805490501190506000804711905060007f000000000000000000000000000000000000000000000000000000000000000060025442610903919061158a565b1190508380156109105750825b80156109195750815b80156109225750805b955085604051806020016040528060008152509550955050505050915091565b60007f0000000000000000000000000000000000000000000000000000000000000000905090565b60007f0000000000000000000000000000000000000000000000000000000000000000905090565b60008082815481106109a7576109a66115be565b5b9060005260206000200160009054906101000a900473ffffffffffffffffffffffffffffffffffffffff169050919050565b6000600360016003805490506109ef919061158a565b81548110610a00576109ff6115be565b5b9060005260206000200160009054906101000a900473ffffffffffffffffffffffffffffffffffffffff16905090565b60008080549050905090565b6000808054905082600081518110610a5757610a566115be565b5b6020026020010151610a69919061161c565b90506000808281548110610a8057610a7f6115be565b5b9060005260206000200160009054906101000a900473ffffffffffffffffffffffffffffffffffffffff16905080600160006101000a81548173ffffffffffffffffffffffffffffffffffffffff021916908373ffffffffffffffffffffffffffffffffffffffff160217905550600067ffffffffffffffff811115610b0957610b08610e93565b5b604051908082528060200260200182016040528015610b375781602001602082028036833780820191505090505b5060009080519060200190610b4d929190610cd0565b50426002819055506000600160146101000a81548160ff02191690836002811115610b7b57610b7a610dab565b5b021790555060008173ffffffffffffffffffffffffffffffffffffffff1647604051610ba69061167e565b60006040518083038185875af1925050503d8060008114610be3576040519150601f19603f3d011682016040523d82523d6000602084013e610be8565b606091505b5050905080610c23576040517f07685e3b00000000000000000000000000000000000000000000000000000000815260040160405180910390fd5b6003829080600181540180825580915050600190039060005260206000200160009091909190916101000a81548173ffffffffffffffffffffffffffffffffffffffff021916908373ffffffffffffffffffffffffffffffffffffffff1602179055508173ffffffffffffffffffffffffffffffffffffffff167f5b690ec4a06fe979403046eaeea5b3ce38524683c3001f662c8b5a829632f7df60405160405180910390a25050505050565b828054828255906000526020600020908101928215610d49579160200282015b82811115610d485782518260006101000a81548173ffffffffffffffffffffffffffffffffffffffff021916908373ffffffffffffffffffffffffffffffffffffffff16021790555091602001919060010190610cf0565b5b509050610d569190610d5a565b5090565b5b80821115610d73576000816000905550600101610d5b565b5090565b6000819050919050565b610d8a81610d77565b82525050565b6000602082019050610da56000830184610d81565b92915050565b7f4e487b7100000000000000000000000000000000000000000000000000000000600052602160045260246000fd5b60038110610deb57610dea610dab565b5b50565b6000819050610dfc82610dda565b919050565b6000610e0c82610dee565b9050919050565b610e1c81610e01565b82525050565b6000602082019050610e376000830184610e13565b92915050565b6000604051905090565b600080fd5b600080fd5b610e5a81610d77565b8114610e6557600080fd5b50565b600081359050610e7781610e51565b92915050565b600080fd5b6000601f19601f8301169050919050565b7f4e487b7100000000000000000000000000000000000000000000000000000000600052604160045260246000fd5b610ecb82610e82565b810181811067ffffffffffffffff82111715610eea57610ee9610e93565b5b80604052505050565b6000610efd610e3d565b9050610f098282610ec2565b919050565b600067ffffffffffffffff821115610f2957610f28610e93565b5b602082029050602081019050919050565b600080fd5b6000610f52610f4d84610f0e565b610ef3565b90508083825260208201905060208402830185811115610f7557610f74610f3a565b5b835b81811015610f9e5780610f8a8882610e68565b845260208401935050602081019050610f77565b5050509392505050565b600082601f830112610fbd57610fbc610e7d565b5b8135610fcd848260208601610f3f565b91505092915050565b60008060408385031215610fed57610fec610e47565b5b6000610ffb85828601610e68565b925050602083013567ffffffffffffffff81111561101c5761101b610e4c565b5b61102885828601610fa8565b9150509250929050565b60008115159050919050565b61104781611032565b82525050565b6000602082019050611062600083018461103e565b92915050565b600080fd5b60008083601f84011261108357611082610e7d565b5b8235905067ffffffffffffffff8111156110a05761109f611068565b5b6020830191508360018202830111156110bc576110bb610f3a565b5b9250929050565b600080602083850312156110da576110d9610e47565b5b600083013567ffffffffffffffff8111156110f8576110f7610e4c565b5b6111048582860161106d565b92509250509250929050565b600073ffffffffffffffffffffffffffffffffffffffff82169050919050565b600061113b82611110565b9050919050565b61114b81611130565b82525050565b60006020820190506111666000830184611142565b92915050565b600061ffff82169050919050565b6111838161116c565b82525050565b600060208201905061119e600083018461117a565b92915050565b600080fd5b600067ffffffffffffffff8211156111c4576111c3610e93565b5b6111cd82610e82565b9050602081019050919050565b82818337600083830152505050565b60006111fc6111f7846111a9565b610ef3565b905082815260208101848484011115611218576112176111a4565b5b6112238482856111da565b509392505050565b600082601f8301126112405761123f610e7d565b5b81356112508482602086016111e9565b91505092915050565b60006020828403121561126f5761126e610e47565b5b600082013567ffffffffffffffff81111561128d5761128c610e4c565b5b6112998482850161122b565b91505092915050565b600081519050919050565b600082825260208201905092915050565b60005b838110156112dc5780820151818401526020810190506112c1565b838111156112eb576000848401525b50505050565b60006112fc826112a2565b61130681856112ad565b93506113168185602086016112be565b61131f81610e82565b840191505092915050565b600060408201905061133f600083018561103e565b818103602083015261135181846112f1565b90509392505050565b6000602082840312156113705761136f610e47565b5b600061137e84828501610e68565b91505092915050565b600061139282611110565b9050919050565b6113a281611387565b82525050565b60006020820190506113bd6000830184611399565b92915050565b60006040820190506113d86000830185611142565b6113e56020830184611142565b9392505050565b60006060820190506114016000830186610d81565b61140e6020830185610d81565b61141b6040830184610d81565b949350505050565b6000819050919050565b61143681611423565b82525050565b600067ffffffffffffffff82169050919050565b6114598161143c565b82525050565b600063ffffffff82169050919050565b6114788161145f565b82525050565b600060ff82169050919050565b6000819050919050565b60006114b06114ab6114a68461147e565b61148b565b61145f565b9050919050565b6114c081611495565b82525050565b600060a0820190506114db600083018861142d565b6114e86020830187611450565b6114f5604083018661117a565b611502606083018561146f565b61150f60808301846114b7565b9695505050505050565b60008151905061152881610e51565b92915050565b60006020828403121561154457611543610e47565b5b600061155284828501611519565b91505092915050565b7f4e487b7100000000000000000000000000000000000000000000000000000000600052601160045260246000fd5b600061159582610d77565b91506115a083610d77565b9250828210156115b3576115b261155b565b5b828203905092915050565b7f4e487b7100000000000000000000000000000000000000000000000000000000600052603260045260246000fd5b7f4e487b7100000000000000000000000000000000000000000000000000000000600052601260045260246000fd5b600061162782610d77565b915061163283610d77565b925082611642576116416115ed565b5b828206905092915050565b600081905092915050565b50565b600061166860008361164d565b915061167382611658565b600082019050919050565b60006116898261165b565b915081905091905056fea26469706673582212205f30eff9535a8721355354a71555b56a5318acd42570f433fe649ee50e51146c64736f6c63430008080033",
  "devdoc": {
    "author": "Irus",
    "details": "This contract implements Chainlink VRF V2 to generate a random number which in turn is used to pick the winner in an automated way using Chainlink Keeper",
    "kind": "dev",
    "methods": {
      "checkUpkeep(bytes)": {
        "details": "This is the function Chainlink upkeep nodes call and look for upkeepNeeded to return  true The following should be true in order to return true 1. Our time interval should have passed 2. Lottery should have atleast 1 player and some Eth 3. Our subscription is funded with Link 4. Our Raffle contract is in \"open\" state - closed state when requested for randomword",
        "returns": {
          "upkeepNeeded": "- boolean value to indicate whether or not upkeep is needed"
        }
      }
    },
    "title": "A Sample Raffle Contract",
    "version": 1
  },
  "userdoc": {
    "kind": "user",
    "methods": {},
    "notice": "This contract is for creating an untamperable decentralised smart contract",
    "version": 1
  },
  "storageLayout": {
    "storage": [
      {
        "astId": 244,
        "contract": "contracts/Raffle.sol:Raffle",
        "label": "s_players",
        "offset": 0,
        "slot": "0",
        "type": "t_array(t_address_payable)dyn_storage"
      },
      {
        "astId": 261,
        "contract": "contracts/Raffle.sol:Raffle",
        "label": "s_recentWinner",
        "offset": 0,
        "slot": "1",
        "type": "t_address"
      },
      {
        "astId": 264,
        "contract": "contracts/Raffle.sol:Raffle",
        "label": "s_raffleState",
        "offset": 20,
        "slot": "1",
        "type": "t_enum(RaffleState)239"
      },
      {
        "astId": 268,
        "contract": "contracts/Raffle.sol:Raffle",
        "label": "s_lastTimeStamp",
        "offset": 0,
        "slot": "2",
        "type": "t_uint256"
      },
      {
        "astId": 273,
        "contract": "contracts/Raffle.sol:Raffle",
        "label": "s_previousWinners",
        "offset": 0,
        "slot": "3",
        "type": "t_array(t_address)dyn_storage"
      }
    ],
    "types": {
      "t_address": {
        "encoding": "inplace",
        "label": "address",
        "numberOfBytes": "20"
      },
      "t_address_payable": {
        "encoding": "inplace",
        "label": "address payable",
        "numberOfBytes": "20"
      },
      "t_array(t_address)dyn_storage": {
        "base": "t_address",
        "encoding": "dynamic_array",
        "label": "address[]",
        "numberOfBytes": "32"
      },
      "t_array(t_address_payable)dyn_storage": {
        "base": "t_address_payable",
        "encoding": "dynamic_array",
        "label": "address payable[]",
        "numberOfBytes": "32"
      },
      "t_enum(RaffleState)239": {
        "encoding": "inplace",
        "label": "enum Raffle.RaffleState",
        "numberOfBytes": "1"
      },
      "t_uint256": {
        "encoding": "inplace",
        "label": "uint256",
        "numberOfBytes": "32"
      }
    }
  }
}